:100000000C9481000C947E0D0C947E0D0C947E0D4E
:100010000C947E0D0C947E0D0C947E0D0C947E0D34
:100020000C947E0D0C947E0D0C947E0D0C947E0D24
:100030000C94390D0C947E0D0C947E0D0C947E0D59
:100040000C947E0D0C947E0D0C947E0D0C947E0D04
:100050000C947E0D0C947E0D0C947E0D0C947E0DF4
:100060000C947E0D0C947E0D0C947E0D0C947E0DE4
:100070000C947E0D0C947E0D0C947E0D0C94C60990
:100080000C9471090C947E0D0C947E0D0C947E0DD5
:100090000C947E0D0C947E0D0C947E0D0C947E0DB4
:1000A0000C947E0D0C947E0D0C947E0D0C947E0DA4
:1000B0000C947E0D0C947E0D0C947E0D0C947E0D94
:1000C0000C947E0D0C947E0D0C947E0D0C947E0D84
:1000D0000C947E0D0C947E0D0C947E0D0C947E0D74
:1000E0000C947E0D0C947E0D9E019E019E01D40108
:1000F000C301D2019E019E01D401C301400050AF53
:10010000800011241FBECFEFCDBFDFE7DEBFECEFD5
:10011000F0E041E019C0B791A7913791279107917D
:1001200007FD0EC097918791EF01F92FE82F0BBFC4
:1001300007900D92A217B307D9F7FE011BBE04C0AA
:100140001D92A217B307E1F7E130F40721F70E94EF
:0A015000D9010C94AB00F894FFCF26
:10015A0052780054580049444C4500546D7251007D
:08016A00546D7220537663000E
:10017200CF93DF93CDB7DEB72597CDBFDEBFE0913A
:100182008F50F0919050F080FF2031F00580F68181
:10019200E02D0081118102C000E010E00E945E0D9E
:1001A2000E94310D6C0180918B5090918C50C81639
:1001B200D90620F40E94180A81E001C080E0C092B2
:1001C2008B50D0928C50811179C0FF20A9F1C016BA
:1001D200D106D0F10E94D806E0918F50F091905054
:1001E2000580F681E02DE680F780C70103960E9424
:1001F200580CD70153968C91539782FF12C01D96CB
:100202006D917C911E97600F711F9801A601C70125
:100212000E94060C882341F0B801C7010E94300CED
:1002220003C08E7FF701838BD7015196ED91FC912C
:100232005297C701099548C0E0918D50F0918E50B8
:100242008081BB24B3948111B12CE0909D50F09039
:100252009E500FB6F8940F92F701858D8F3F09F4E7
:10026200158ED7015E968C915E978F3F11F45E9644
:100272001C920F900FBEF701828D811115C0609103
:10028200A3507091A450645F7F4FC70141960E94B2
:10029200A00CB11004C0C8018C199D0902C08FEFD7
:1002A2009FEF6B2D0E94B407C7010E94650A0E944E
:1002B200D806811109C00E94C30806C00E94D80650
:1002C20003C0898187FF0EC040E050E0BE016F5F2E
:1002D2007F4F80919D5090919E500E947805811190
:1002E200F0CF4DCF0C811D81D8011B968D919C9131
:1002F2001C97892B21F0C80103960E94580C0E947A
:10030200310D7C0180918B5090918C50E816F9064A
:1003120010F40E94180AE0928B50F0928C50E981FE
:100322000E2E000CFF0BEA30F10570F6EC58FF4F71
:10033200D80153968C910C941F0D8160F801838B28
:100342002A813B8165857685620F731FA701C801EB
:100352000E94060C882309F4B7CFD8015196ED917B
:10036200FC915297C8010995F801838982FFACCFAD
:100372006A817B8185859685680F791FC8010E94F5
:10038200300CA2CF8160F801838B6A817B81658703
:1003920076876E0D7F1D9701A701C8010E94060C8A
:1003A20093CF81FF91CF8E7FD80153968C938CCFC0
:1003B200F89488ED90E284BF9093680021E030E0E9
:1003C20084BF2093610080E48093410483E290E043
:1003D2000E946B0BEC01009751F04F968883998332
:1003E20081E08B8F84E08C8FCE010E94D50BC0936D
:1003F2009750D0939850CD2B09F4E1C0E12CF12C09
:1004020002E028E730E04AE551E060E08CE79CE05A
:100412000E94E10201E028E730E04DE551E060E0B2
:100422008FEA9AE00E94E10295E9E92E90E5F92E21
:1004320000E028E730E040E651E060E084EE93E03F
:100442000E94E102813009F073C00FB6F8940F9256
:1004520080919D5090919E50892B09F052C082E567
:1004620090E50E94080D89E490E50E94080D82E55E
:1004720090E580938F509093905089E490E580931B
:100482008D5090938E5081E590E00E946B0BEC01B1
:10049200009751F04F96888399838AE08B8F85E08D
:1004A2008C8FCE010E94D50BC0939D50D0939E504D
:1004B200209739F18091365090913750A091385061
:1004C200892B8A2B61F080913B5090913C50A091F6
:1004D2003D50892B8A2BA9F481E090E002C080E094
:1004E20090E025E0289FF001299FF00D1124EA5C9D
:1004F200FF4A85E691E0A0E080839183A283C383D3
:10050200D4830F900FBE80919D5090919E50892B65
:1005120009F455C081E9E82E80E5F82E03E020EFCA
:1005220030E04AE651E060E089EB90E00E94E102AF
:10053200813009F044C0F8942FEF3FEF209393509D
:10054200309394508093AB501092A5501092A650C5
:1005520020E137E220930C0B30930D0B8093050BB7
:100562008093000BA091A350B091A450CD91CDBF28
:10057200DD91DEBFFF91EF91DF91CF91BF91AF91FE
:100582009F918F917F916F915F914F913F912F91A9
:100592001F910F91FF90EF90DF90CF90BF90AF909F
:1005A2009F908F907F906F905F904F903F902F9091
:1005B2001F900F900BBE0F900FBE0F900895FFCFAC
:1005C2006F927F928F929F92AF92BF92CF92DF9261
:1005D200EF92FF920F931F93CF93DF93982E192FD1
:1005E2003A01862E6901C9010E946B0B5C01892BBD
:1005F20009F4D9C088E290E00E946B0BEC010097ED
:1006020009F4D1C0AF8AB88ED6011197AA0DBB1DCD
:10061200611471048104D9F049969E012F5D3F4F08
:10062200F301582D0E94570DFC016193CF01E62D75
:10063200F72D582D4FEF641A740A840A0E94570D41
:10064200662319F08217930759F718A201C0198E71
:10065200043008F003E00E8B09A31AA21A861B8647
:100662001C8A1D8AC887D98784E090E0801B910983
:100672008C879D87CA8BDB8B84E09E012D5D3F4F6B
:10068200F90111928A95E9F71FA29C92FD01319717
:10069200108331971082319780E8808331971082DE
:1006A2003197108277971082319710829497A8839E
:1006B200B983E114F10419F0F701C083D1830FB6B5
:1006C200F8940F928091AC508F5F8093AC508091E0
:1006D200A3509091A450892BA9F5C093A350D09315
:1006E200A4508091AC508130C9F580E090E50E9421
:1006F200080D89E090E50E94080D82E190E50E94D4
:10070200080D8BE190E50E94080D86E790E50E94B6
:10071200080D8DE690E50E94080D84E690E50E94A2
:10072200080D8BE590E50E94080D86E790E5809321
:10073200A1509093A2508DE690E580939F509093A4
:10074200A0500CC08091AB50811108C00E94500D86
:10075200891720F0C093A350D093A4508091AA503F
:100762008F5F8093AA508E899091AE50981710F4A3
:100772008093AE50F9E08F9FC0011124BE016E5FDD
:100782007F4F8050904B0E94A00C0F900FBE809123
:10079200AB50882331F00E94500D981710F40E943C
:1007A200C30881E001C08FEFDF91CF911F910F91BC
:1007B200FF90EF90DF90CF90BF90AF909F908F907F
:0607C2007F906F90089586
:1007C80089E0F82E80910050823010F00E94C30812
:1007D8008091895090918A50892BA1F38091405043
:1007E8008823F1F0F894C6B1D7B1CE010C960E94D7
:1007F800580C78948E010E5F1F4FC8010E94580C48
:100808008E899091A850981710F48093A850F89E5C
:10081800C0011124B8018C5D9F4A0E94A00CDECF54
:100828000E94310D2091875030918850821B930B84
:1008380080938550909386508091855090918650F2
:10084800C0918350D0918450009709F454C02196E8
:10085800C0938350D0938450019780938550909390
:100868008650209709F03FC08091895090918A5016
:1008780020918150309182502093895030938A5032
:1008880080938150909382502EC00580F681E02D90
:1008980006811781D8010E94740DC817D90760F224
:1008A800F8946801B2E0CB0ED11CC6010E94580C26
:1008B800F80184899589892B21F0C8010C960E943A
:1008C800580C7894D80156968C919091A850981706
:1008D80010F48093A850F89EC0011124B6018C5DD5
:1008E8009F4A0E94A00CE0918950F0918A50808123
:1008F8008111CBCFA1CFC0938750D09388508091DE
:10090800A850482F50E0F49E9001F59E300D112418
:10091800F901EC5DFF4A9081911107C0811103C074
:100928001092A8504FCF8150ECCF8093A8500E94CE
:10093800160D295D3F4AA217B30721F40E94740DD2
:1009480081839283F49EF001F59EF00D1124EC5DF5
:10095800FF4A0180F281E02D86819781DC01ED91CB
:0C096800FC91119757966C9109952CCFCB
:100974002F923F924F926F927F928F92AF92BF923B
:10098400CF92DF92EF920F931F93CF93DF93CDB764
:10099400DEB72797CDBFDEBF8C011A01462E1C821D
:1009A4001D8280E0680120E8E22E36018E2C3AE1B7
:1009B400630E711C811C9BE1C90ED11CE11CF80162
:1009C4003896EE83FF830FB6F8940F92F801228DC8
:1009D400938D2917B0F4642DA101C8010E944B071F
:1009E400F8019189992331F00F5E1F4FB80180E817
:1009F4000E94F30A81110E94C3080F900FBE81E088
:100A040062C02C813D81232B19F40F900FBE5AC074
:100A1400811109C08091AD5089838091A550909136
:100A2400A6508A839B830F900FBE0E945E0D0FB663
:100A3400F8940F92F801858D8F3F09F4158EF80113
:100A4400868D8F3F09F4168E0F900E94490D0E94E7
:100A5400A10B811132C00FB6F8940F92F301582DF7
:100A64000E94570D862F0F900FBEF6015E2D0E9437
:100A7400570D86131CC0AC80BD806091A35070914B
:100A8400A450645F7F4F8E819F810E94350B61E08B
:100A9400C5010E94B407C8010E94650A0E94D806D5
:100AA400882311F081E08FCF0E94C308FBCFC801D7
:100AB4000E94650A0E94D806F5CFC8010E94650A03
:100AC4000E94D80680E02796CDBFDEBFDF91CF918C
:100AD4001F910F91EF90DF90CF90BF90AF908F90C8
:0C0AE4007F906F904F903F902F900895EE
:100AF0006F927F928F92AF92BF92CF92DF92EF92DE
:100B0000FF920F931F93CF93DF93CDB7DEB7259757
:100B1000CDBFDEBF8C017B014C835D8380E038015B
:100B200090E8892EEAE16E0E711C811C6801F1E1EA
:100B3000CF0ED11C0FB6F8940F92F801B28CBB20E7
:100B4000B9F0B701C8010E94C10CBA94F801B28E85
:100B50008085882349F0085F1F4FB80180E80E9414
:100B6000F30A81110E94C3080F900FBE81E065C097
:100B70002C813D81232B19F40F900FBE5DC0811194
:100B800007C08091AD5089830E94790D8A839B8331
:100B90000F900FBE0E945E0D0FB6F8940F92F801F1
:100BA000858D8F3F09F4158EF801868D8F3F09F4EE
:100BB000168E0F900E94490D0E94A10B81112CC02E
:100BC0000FB6F8940F92F301582D0E94570D0F9015
:100BD0000FBE61111BC0AC80BD806091A3507091AD
:100BE000A450645F7F4FC6010E94350B61E0C501D0
:100BF0000E94B407C8010E94650A0E94D806882393
:100C000011F081E097CF0E94C308FBCFC8010E947A
:100C1000650A0E94D806F5CFC8010E94650A0E94A5
:100C2000D8060FB6F8940F92F301582D0E94570D75
:100C30000F900FBE6111E5CF80E02596CDBFDEBFDE
:100C4000DF91CF911F910F91FF90EF90DF90CF90A8
:0C0C5000BF90AF908F907F906F90089540
:100C5C00CF92DF92EF92FF920F931F93CF93DF937C
:100C6C008091A95081118AC00091A5501091A65075
:100C7C000F5F1F4F0093A5501093A650011511053F
:100C8C00B9F48091A1509091A25020919F50309135
:100C9C00A0502093A1503093A25080939F509093DA
:100CAC00A0508091AD508F5F8093AD500E94F50C99
:100CBC008091935090919450C0E00817190708F454
:100CCC0046C0D9E0E091A150F091A25080818111F1
:100CDC0003C08FEF9FEF0AC00E94410DE680F780A2
:100CEC00D7010E94740D0817190728F480939350AC
:100CFC00909394502CC06701B2E0CB0ED11CC6016E
:100D0C000E94580CF70184899589892B21F0C70121
:100D1C000C960E94580CD70156968C919091AE501F
:100D2C00981710F48093AE50D89FC0011124B601CF
:100D3C008050904B0E94A00C0E946F0DD7015696CC
:100D4C009C918689981708F4BDCFC1E0BBCF0E9457
:100D5C006F0DE689B9E0EB9FF0011124E050F04BE8
:100D6C008081823008F0C1E080917F50909180505A
:100D7C008091A750882361F0C1E00AC080917F5018
:100D8C0090918050019680937F5090938050C0E05A
:100D9C008C2FDF91CF911F910F91FF90EF90DF90EF
:040DAC00CF90089547
:100DB000EF92FF920F931F93CF93DF930FB6F894A8
:100DC0000F928091A95081508093A9508091A95091
:100DD000882311F080E056C08091AC508823D1F375
:100DE000C0E0D0E089E0F82EEE24E39480916450D6
:100DF000882351F1E0916950F0916A50C681D78102
:100E0000CE010C960E94580C8E010E5F1F4FC80138
:100E10000E94580C8E899091AE50981710F48093D0
:100E2000AE50F89EC0011124B8018050904B0E9432
:100E3000A00CE091A350F091A4509E898689981748
:100E4000A8F2E092A750D2CFCD2B11F00E94F50C62
:100E5000C0917F50D0918050209761F011E00E94A6
:100E60002E0681111093A7502197C9F710927F5039
:100E7000109280508091A750882309F4ABCF0E9434
:100E8000C30881E00F900FBEDF91CF911F910F91AA
:060E9000FF90EF900895B1
:100E9600CF92DF92FF920F931F93CF93DF93EC01D4
:100EA600FA8C2C8D21113DC088819981892B09F0FE
:100EB6004DC00C811D810115110511F480E02EC075
:100EC600F80182A1815082A3268991A12917B1F345
:100ED6008111F4CF6801F2E0CF0ED11CC6010E9449
:100EE600580CF80181A1868B482F50E024E030E0B1
:100EF600241B350B248735879091AE50981710F434
:100F06008093AE5029E0249FC001259F900D1124A7
:100F1600B6018050904B0E94A00C81E01C821D827D
:100F260016C030E08A819B810E94DC0C2C8D8A8160
:100F36009B81820F911D8A839B832C813D81821721
:100F4600930720F0888199818A839B8380E0F394BC
:100F5600FA8EDF91CF911F910F91FF90DF90CF9086
:020F66000895EC
:100F6800FF920F931F93CF93DF93EC01F62E00911E
:100F7800A5501091A6508091A3509091A45002962C
:100F88000E94580CCF3F8FEFD80789F4FF2079F0E3
:100F98006091A3507091A4506E5F7F4F8BE590E5F0
:100FA800DF91CF911F910F91FF900C94A00CC00F6F
:100FB800D11FE091A350F091A450C283D3836091D4
:100FC800A3507091A450C017D10768F480919F5026
:100FD8009091A0506E5F7F4FDF91CF911F910F913D
:100FE800FF900C94350B8091A1509091A2506E5FA8
:100FF8007F4F0E94350B8091935090919450C81761
:10100800D90720F4C0939350D0939450DF91CF9197
:081018001F910F91FF90089554
:101020000F920FB6F8940F920BB60F921F921124E5
:101030002F923F924F925F926F927F928F929F92E8
:10104000AF92BF92CF92DF92EF92FF920F931F93D6
:101050002F933F934F935F936F937F938F939F93C0
:10106000AF93BF93CF93DF93EF93FF930E946A0DEB
:101070000DB60D920EB60D920E942E0681110E94A1
:101080001B090E94640DCDBFDD91DEBFFF91EF9182
:10109000DF91CF91BF91AF919F918F917F916F9190
:1010A0005F914F913F912F911F910F91FF90EF9082
:1010B000DF90CF90BF90AF909F908F907F906F9078
:1010C0005F904F903F902F901F900F900BBE0F900E
:0610D0000FBE0F90189501
:1010D6000F920FB6F8940F920BB60F921F9211242F
:1010E6002F923F924F925F926F927F928F929F9232
:1010F600AF92BF92CF92DF92EF92FF920F931F9320
:101106002F933F934F935F936F937F938F939F9309
:10111600AF93BF93CF93DF93EF93FF930E946A0D34
:101126000DB60D920EB60D920E941B090E94640D1B
:10113600CDBFDD91DEBFFF91EF91DF91CF91BF91E2
:10114600AF919F918F917F916F915F914F913F9159
:101156002F911F910F91FF90EF90DF90CF90BF904E
:10116600AF909F908F907F906F905F904F903F9041
:101176002F901F900F900BBE0F900FBE0F901895DB
:101186000F920FB6F8940F920BB60F921F9211247E
:101196002F923F924F925F926F927F928F929F9281
:1011A600AF92BF92CF92DF92EF92FF920F931F936F
:1011B6002F933F934F935F936F937F938F939F9359
:1011C600AF93BF93CF93DF93EF93FF930E946A0D84
:1011D6000DB60D920EB60D920E941B090E94640D6B
:1011E600CDBFDD91DEBFFF91EF91DF91CF91BF9132
:1011F600AF919F918F917F916F915F914F913F91A9
:101206002F911F910F91FF90EF90DF90CF90BF909D
:10121600AF909F908F907F906F905F904F903F9090
:101226002F901F900F900BBE0F900FBE0F9008953A
:101236008091A950882321F081E08093A7500895DA
:101246001092A750A091A350B091A450E091A35042
:10125600F091A4502D913C918789908D8217930728
:1012660050F08091A3509091A4508091A3509091FA
:10127600A4500000FFCF8091AE5069E0482F50E0A7
:10128600649F9001659F300D1124F901E050F04BE9
:101296009081911102C08150F1CF0E94160D2D5FF1
:1012A6003F4AA217B30731F412962D913C9113973A
:1012B6002183328399E0949FF001959FF00D1124CC
:1012C600E050F04B0180F281E02D2681378120939A
:0C12D600A3503093A4508093AE500895B4
:1012E2001F920F920FB60F9211240BB60F920F930B
:1012F2001F932F933F934F935F936F937F938F939C
:101302009F93AF93BF93EF93FF93CF93DF931F927C
:10131200CDB7DEB70AB30023D9F01DB3BE016F5FAC
:101322007F4F80E090E00E94C10C01500ABB1F3F3A
:1013320049F488B1882341F068E070E080E80E94B7
:10134200F30A02C01F5F1DBB89818093220805C07A
:10135200809125088F7D809325080F90DF91CF9192
:10136200FF91EF91BF91AF919F918F917F916F917B
:101372005F914F913F912F911F910F910F900BBE53
:0A1382000F900FBE0F901F901895FA
:10138C001F920F920FB60F9211240BB60F921F9350
:10139C002F933F934F935F936F937F938F939F9371
:1013AC00AF93BF93EF93FF93CF93DF931F92CDB780
:1013BC00DEB78091200889839AB38BB39817D8F441
:1013CC001EB38AB3AE014F5F5F4F60E880E090E0E0
:1013DC000E944B071F3F69F481B3882361F061E1E0
:1013EC0070E080E80E94F30A882329F00E946B08C1
:1013FC0002C01F5F1EBB0F90DF91CF91FF91EF9149
:10140C00BF91AF919F918F917F916F915F914F9110
:10141C003F912F911F910F900BBE0F900FBE0F900D
:04142C001F90189560
:10143000EF92FF920F931F93CF93DF93E0918F5022
:10144000F09190508081882369F10580F681E02D2C
:1014500000811181C681D7817E0183E0E80EF11CF5
:10146000C7010E94580CE989FA89CE0109958B8938
:1014700082FFE4CF8D859E85800F911F0817190785
:1014800060F48B839C83C987DA87B70180918F5082
:10149000909190500E94350BD1CFB801CE010E949F
:1014A000300CCCCF80918D5090918E5080938F5086
:1014B00090939050E0938D50F0938E50DF91CF91A8
:0A14C0001F910F91FF90EF90089527
:1014CA00CF92DF92EF920F931F93CF93DF93EC01AA
:1014DA000FB6F8940F921E8D6C0181E1C80ED11CD3
:1014EA0080E8E82E01E0111664F48989882349F01E
:1014FA008E2DB6010E94F30A81110093A750115054
:10150A00F2CF8FEF8E8F0F900FBE0FB6F8940F9217
:10151A001D8D6E0188E0C80ED11C80E8E82E01E01E
:10152A00111664F48885882349F08E2DB6010E942D
:10153A00F30A81110093A7501150F2CF8FEF8D8FCC
:10154A000F900FBEDF91CF911F910F91EF90DF9017
:04155A00CF90089591
:10155E00CF93DF9300D000D0CDB7DEB784E690E016
:10156E00A0E0B0E089839A83AB83BC830E94310DE7
:10157E007C01CE0101963C0120E8822E0E945E0D78
:10158E008091A5509091A650870108531F4F8E153C
:10159E009F0520F40E151F0538F403C00E151F0508
:1015AE0098F08017910780F00E94D806811102C032
:1015BE000E94C308682DA301809197509091985076
:1015CE000E94BA047801DACF60E09801281B390B2B
:0815DE00C9010E94B407E8CF27
:1015E6000F931F93CF93DF93A82FCB010596A11DD1
:1015F600FC015A2F0E94280DFB01C681D7818E015E
:10160600045F1F4FC8010E94580C8091A950811198
:1016160014C00A501109C8010E94580C8E89909175
:10162600AE50981710F48093AE50F9E08F9FC0012A
:101636001124B8018050904B03C0B80184E690E5B0
:101646000E94A00C0E946F0D9E898689891720F43E
:1016560081E08093A75001C080E0DF91CF911F9178
:041666000F91089543
:10166A000F931F93CF93DF938C01FB0180819181AC
:10167A008F3F2FEF920721F4E801AF81B8850EC0A2
:10168A00D801139612962D913C911397E90148813E
:10169A0059818417950710F0D901F4CF0E94740D6F
:1016AA0082839383EC01EC83FD83A483B583129632
:1016BA00ED93FC93139700871187F80180818F5F60
:0C16CA008083DF91CF911F910F91089554
:1016D600CF93DF93EC010E945E0D80919B50909119
:1016E6009C50892B31F481E090E480939B50909339
:1016F6009C502091995030919A50C9018C0F9D1F92
:101706008F3F4FE0940770F42817390758F4C091BB
:101716009B50D0919C50C20FD31F809399509093A9
:101726009A5002C0C0E0D0E00E94D806209711F47B
:0C1736000000FFCFCE01DF91CF9108959D
:10174200FC01DB010FB6F8940F924091A550509125
:10175200A6502D913C9111972F3F8FEF3807F1F052
:10176200818192816091AD507081761719F048178E
:101772005907B0F4481B590B4217530760F4241B56
:10178200350B2D933C938091AD5080830E94790D4F
:101792008183928303C01D921C9202C080E001C02B
:0817A20081E00F900FBE0895D5
:1017AA00CF93DF93EC010FB6F8940F9248815981D9
:1017BA008B8D6C8D9A01869F200D311D11242C83EF
:1017CA003D831A8E4A835B8390E00197689F90015C
:1017DA00699F300D1124CA01820F931F8E839F8344
:1017EA008FEF8D8F8E8FCE0108960E94080DCE0145
:1017FA0041960E94080D0F900FBE81E0DF91CF91B4
:02180A0008953F
:10180C00FC0163837483818792874617570778F0AE
:10181C00421B530B8585968548175907C8F4BF01A1
:10182C006D5F7F4F80918D5090918E500DC04217FF
:10183C00530718F46217730758F4BF016D5F7F4F9D
:10184C0080918F50909190500E94350B80E00895BC
:04185C0081E008958A
:10186000CF93DF93CDB7DEB72597CDBFDEBF9C0109
:1018700080919D5090919E50009779F019826A83D3
:101880007B832C833D832091AB50AE014F5F5F4F34
:10189000222329F02091A95002C080E003C060E813
:1018A0000E94BA042596CDBFDEBFDF91CF91089587
:1018B000CF93DF93FC01A085B18582819381248140
:1018C0003581EC012C833D83C481D5818A839B8340
:1018D00011968D919C911297E817F90721F41196B2
:1018E000CD93DC931297108611868C9181508C9346
:0818F0008C91DF91CF91089566
:1018F800CF93DF9300D000D0CDB7DEB74FEF5FEFC7
:10190800BE016F5F7F4F80919750909198500E94D1
:10191800780589819A81AB81BC8184369105A105BE
:10192800B10561F780914704806480934704198268
:081938001A821B821C82E2CF1F
:10194000CF93DF939C01FB01DC011196CD91DC91DB
:101950001297C283D3838C819D81848395838C81EC
:101960009D81DC0112966D937C9313976C837D832C
:1019700020873187F90180818F5F8083DF91CF914C
:021980000895C8
:10198200FC01CB01248D2223A9F030E0468157814E
:10199200420F531F46835783648175814617570749
:1019A20020F040815181468357834681578160E808
:0619B2000C94DC0C08950A
:1019B800CF92DF92EF92DC016A01E62E280F391FE1
:1019C800A217B30751F0F6015E2D0E94570D6D93D3
:1019D8004FEFC41AD40AE40AF3CFEF90DF90CF9008
:0219E800089560
:1019EA00E091A150F091A2508081811103C08FEF44
:1019FA009FEF04C00E94410D808191818093935092
:061A0A0090939450089532
:101A1000FC010396818392832FEF3FEF238334836E
:0C1A200085839683878390871082089549
:101A2C00A181B28112960D90BC91A02DA183B2839D
:021A3C0008950B
:101A3E00EE0FFF1F0024001C0BBE0790F691E02D49
:021A4E000994F9
:101A500057FD04C05BBF67917791089561917191C3
:021A60000895E7
:101A62000FB6F8940F920E94790D0F900FBE089551
:101A72000F9301E00093060B0F910E941008189536
:101A8200E091A150F091A2500580F681E02D0895D9
:0E1A92000FBEBE016C5F7F4FCE01019608951E
:0E1AA000E091A350F091A45096898E8908958C
:0E1AAE0057FD03C05BBF6791089560810895E6
:0C1ABC008091A9508F5F8093A95008957D
:0C1AC800A091A350B091A450CD910895BE
:0A1AD400A091A350B091A450089512
:0A1ADE00E091A350F091A450089588
:0A1AE80012968D919C9113970895BA
:0A1AF2008091A5509091A650089530
:041AFC000C94000046
:00000001FF
