:100000000C9463000C9424190C9424190C94241956
:100010000C9424190C9424190C9424190C9424196C
:100020000C9424190C9424190C9424190C9424195C
:100030000C9476180C9424190C9424190C942419FB
:100040000C9424190C9424190C9424190C9424193C
:100050000C9424190C9424190C9424190C9424192C
:100060000C9424190C9424190C9424190C9424191C
:100070000C9424190C9424190C9424190C9424190C
:100080000C9424190C9424190C9424190C942419FC
:100090000C9424190C9447120C94F7110C94241905
:1000A000E703E703E7031F040E041D04E703E70368
:1000B0001F040E04280038D68038D638D700324CBA
:1000C00038D738EA800011241FBECFEFCDBFDFE361
:1000D000DEBFE4EBF0E040E017C0B591A5913591AB
:1000E0002591059107FD0CC095918591EF01F92FA0
:1000F000E82F05900D92A217B307D9F7FE0104C0AF
:100100001D92A217B307E1F7E53CF40731F70E940F
:0A01100041040C948B00F894FFCF1B
:10011A00CF93DF93CDB7DEB72897CDBFDEBF0E945E
:10012A0066186C01A4E6EA2E0E94FE170E949D0D35
:10013A000E9466188C199D098436910510F4109254
:10014A00D6388E010F5F1F4F0E9427180E94A30FF7
:10015A000E9466186C01F4E6EF2EF12C0C5F1F4F1B
:10016A0020E030E0A9016FEF7FEFCB010E949D0DE7
:10017A000E9466188C199D098436910510F0109218
:10018A00D6380E945A1700E010E00E9427180E94F1
:10019A00A30F24E043EB55E160E070E08091B738AB
:1001AA009091B8380E94A30FE12C0E94FE170E947A
:1001BA009D0D00E010E023E00E944C180E94A30F5E
:1001CA0023E043EB55E160E070E08091B73890910D
:1001DA00B8380E94A30F0E941D180E949D0D00E0CE
:1001EA0010E020E00E944C180E94A30F0E941D18E4
:1001FA000E949D0DC12CD12C00E010E022E00E944B
:10020A007E180E94A30F2FEFC21AD20A85E0C816E1
:10021A00D10491F7E12C0E94FE170E949D0D0E94C5
:10022A00A3180E949D0D0E94AA180E949D0D812C60
:10023A00912C5401839400E010E021E0B501A4015F
:10024A000E941F190E94A30FE12CF12C0E9413187F
:10025A000E949D0D880C991CAA1CBB1C8D819E8135
:10026A00AF81B8858F3F9F4FAF4FBF4F21F744E60D
:10027A00E42EF12C22E030E040E050E061E070E052
:10028A0080E090E00E949D0D00E010E020E04FEF3A
:10029A005FEFBA018091B7389091B8380E94A30FE6
:1002AA00E12CF12C0E9413180E949D0D00E010E031
:1002BA0020E00E947E180E94A30F8E010B5F1F4F41
:1002CA0022E030E00E94E318CB010E949D0D0E94BB
:1002DA00A3180E949D0D0450110921E00E947E1866
:1002EA000E94A30F0C5F1F4F2FEF3FEFA90160E0A1
:1002FA0070E0CB010E949D0D0450110921E00E947B
:10030A007E180E94A30F57E0C52ED12C812C912C68
:10031A00540183948E010F5F1F4F21E0B501A401A0
:10032A000E941F190E94A30F880C991CAA1CBB1CAF
:10033A00F1E0CF1AD10871F7E12CF12C0C5F1F4FB5
:10034A000E94AA180E949D0D045011090E942718A4
:10035A000E94A30F00E010E021E04FEF5FEFBA0127
:10036A000E941F190E94A30F83E190E00E94AC151E
:10037A006C010097A9F0FC01128A0E94DD1286EE38
:10038A009FE6F6018083918382E390E084879587D4
:10039A00168617868DE994E1808B918B12861386D7
:1003AA000E94A0160E949D0D63E080E090E00E94EA
:1003BA00E20E1D821E821F8218860E9466182FEF87
:1003CA003FEFAC0161E0C6010E945411EE24EA94A9
:1003DA00FE2C0E9413180E949D0D0E945A170E941B
:1003EA0066182FEF3FEFAC0161E0C6010E9454117D
:1003FA000E94A3180E949D0D60E080E090E00E9498
:10040A00E20E2FEF3FEF40E050E065E0C6010E94A8
:10041A0054110E94A0160E949D0D83E190E00E9453
:10042A00AC156C010097A9F0FC01128A0E94DD123A
:10043A0083EF9FE6F601808391838AE590E08487C3
:10044A0095871686178686E997E1808B918B1286A7
:10045A001386C092CF38D092D0388AE5C82ED12CD4
:10046A0092E3892E912CA12CB12C0E94321790E094
:10047A00B6010E9482178A30910510F48AE090E052
:10048A002FEF3FEFAC0164E08091CF389091D038E4
:10049A000E9454110E94321790E0B6010E948217FE
:1004AA008C010A9710F40AE010E0B80180E00E947B
:1004BA002113672B682B692B11F00E946E1760E0DD
:1004CA0070E080E00E942113672B682B692B11F0E2
:1004DA000E946E17B80181E00E9421130E94F01653
:1004EA0060919538709196388091973890919838A4
:1004FA00A50194010E945D16672B682B692B91F464
:10050A0063E00E941F190E94E20E6FEF7FEF81E005
:10051A000E9421130E94F01660E00E941F190E9497
:10052A00E20E07C06FEF7FEF81E00E9421130E9465
:08053A00F0160E945A1799CF38
:10054200CF93DF93CDB7DEB72A97CDBFDEBFE09161
:10055200B338F091B438F080FF2031F00580F68195
:10056200E02D0081118102C000E010E00E94B71866
:100572000E9466186C018091AF389091B038C8160D
:10058200D90620F40E94A71181E001C080E0C09248
:10059200AF38D092B03881117CC0FF20C1F1C016B3
:1005A200D106E8F10E940F0EE091B338F091B43811
:1005B2000580F681E02DE680F780C70102960E9451
:1005C2003916D70152968C91529782FF15C01C960C
:1005D2006D917C911D97600F711F9801A601C70153
:1005E2000E940F16882359F020E030E0A80160E055
:1005F200C7010E94541103C08E7FF701828BD7017D
:100602005096ED91FC915197C7010995C3C0E091B5
:10061200B138F091B2388081BB24B3948111B12CEE
:10062200E090C538F090C6380FB6F8940F92F701F3
:10063200858D8F3F09F4158ED7015E968C915E975A
:100642008F3F11F45E961C920F900FBEF701828DC0
:10065200811115C06091C7387091C838645F7F4FAF
:10066200C70141960E947F16B11004C0C8018C19BF
:100672009D0902C08FEF9FEF6B2D0E94470FC701AC
:100682000E9464130E940F0E811184C00E94001107
:1006920081C00E940F0E7EC0811109C08091E13895
:1006A2008E838091C9389091CA388F8398870F9032
:1006B2000FBE0E94B7180FB6F8940F92F801858DFD
:1006C2008F3F09F4158ED8015E968C915E978F3F0D
:1006D20011F45E961C920F900FBEBE01675F7F4FB2
:1006E200CE0106960E9478158111BEC0C8010E94F3
:1006F200E817882309F4B2C069857A85C6010E9489
:10070200BB17C8010E9464130E940F0E882309F4CC
:10071200A2C081E00FB6F8940F92F801F28CFF208C
:1007220009F491C0BE016F5F7F4FC8010E94BE16DF
:10073200FA94D8015A96FC925A9718968C91811184
:1007420035C00F900FBE898187FD24C00C811D81A9
:10075200D8011A968D919C911B97892B21F0C80183
:1007620002960E9439160E9466187C018091AF3869
:100772009091B038E816F90610F40E94A711E092A1
:10078200AF38F092B038E9810E2E000CFF0BEA3040
:10079200F105A8F00091C5381091C63819861A865D
:1007A20080E06801B1E1CB0ED11CB4CFC80108963C
:1007B2000E94E513882329F20E940011C2CFE05B58
:1007C200FF4FD80152968C910C94C9188160F801A0
:1007D200828B2A813B8164857585620F731FA70115
:1007E200C8010E940F168823A9F2D8015096ED91F4
:1007F200FC915197C8010995F801828982FFCACFFD
:100802004A815B8184859585480F591F20E030E03D
:1008120060E0C8010E945411BDCF8160F801828B53
:100822006A817B81648775876E0D7F1D9701A701A1
:10083200C8010E940F16AECF81FFACCF8E7FD801C8
:1008420052968C93A7CF29853A85232B09F024CF82
:100852000F900FBE7CCE0E9400115BCFC8010E9498
:1008620064130E940F0E55CFC8010E9464130E94A8
:100872000F0EC8010E94E817882309F44ACF67CEF9
:10088200F89488ED90E084BF9093600021E030E01E
:1008920084BF209361008FEF8093A1048093A6040C
:1008A20086E090E00E94AC15EC01892B91F143E0C7
:1008B20060E081E00E94931288839983009721F07F
:1008C2000E94E3180E94880C88819981892B09F182
:1008D20084E090E00E94AC158A839B834FEF50E046
:1008E2000E945E181C821D82E12CF12C00E09E0108
:1008F2004EE650E061E27AE689EE9BE00E942C0728
:100902009E014EE650E069E27AE689EE9BE00E94A3
:100912002C0786E090E00E94AC15EC01892BA1F136
:1009220043E060E081E00E949312888399830097FC
:1009320021F00E94E3180E94880C88819981892BFA
:1009420019F184E090E00E94AC158A839B834FEFFB
:100952005FE00E945E1884E690E08C839D83E12C28
:10096200F12C01E09E014EE650E061E37AE689EE69
:100972009BE00E942C079E014EE650E069E37AE676
:1009820089EE9BE00E942C0757EBE52E58E3F52EEB
:1009920000E00E94CF1861E47AE68DE890E00E94C0
:1009A2002C0782E397E18093B5389093B638109282
:1009B200D738E12CF12C0E94CF186AE47AE687E35B
:1009C2009BE00E942C070E94CF186FE47AE685E82C
:1009D2009AE00E942C0744E060E081E00E949312BA
:1009E200EC01009749F01C821D82188219821E8236
:1009F2000E94E3180E94880CC093BD38D093BE3881
:100A0200209709F43EC08091753890917638892BF1
:100A120049F08091793890917A38892B69F4E1E034
:100A2200F0E002C0E0E0F0E00E948E1884E59AE671
:100A320080839183C283D3832BEBE22E28E3F22EB1
:100A420002E00E94D41864E67AE686EA93E10E9404
:100A52002C0739EBE32E38E3F32E01E00E94D41881
:100A620069E67AE68EED95E10E942C07E12CF12CE5
:100A720000E00E94D4186EE67AE683E495E10E94D3
:100A82002C07E12CF12C03E00E94CF1863E77AE6F1
:100A92008DEF98E00E942C0793ECE92E98E3F92E53
:100AA20000E00E94CF1869E77AE689E298E00E94A6
:100AB2002C078130B1F40E94DD128091C5389091EB
:100AC200C638892B09F452C08FEBE82E88E3F82E42
:100AD20003E00E94D4186EE77AE681EA92E00E946F
:100AE2002C07813009F042C0F8942FEF3FEF20939A
:100AF200C1383093C2388093E0381092C9381092CE
:100B0200CA3820E137E220938C0A30938D0A809311
:100B1200850A8093800AA091C738B091C838CD91D8
:100B2200CDBFDD91DEBFFF91EF91DF91CF91BF91FC
:100B3200AF919F918F917F916F915F914F913F9173
:100B42002F911F910F91FF90EF90DF90CF90BF9068
:100B5200AF909F908F907F906F905F904F903F905B
:0E0B62002F901F900F900FBE0F900895FFCFA1
:100B70007F928F929F92AF92BF92CF92DF92EF922D
:100B8000FF920F931F93CF93DF93CDB7DEB72597D7
:100B9000CDBFDEBF8C016C837D83D12C90E05801EA
:100BA00021E1A20EB11C89E0782E24E0822E912C46
:100BB0000FB6F8940F92D8015A968C915A978823C1
:100BC00061F181505A968C935A978D919C91892B03
:100BD000A1F48091C7389091C838892B39F0E09101
:100BE000C738F091C83882A18F5F82A38091C7383F
:100BF0009091C838F80184839583D80118968C9118
:100C0000882339F0C80108960E94E51381110E94DB
:100C100000110F900FBE81E00EC12C813D81232B6E
:100C200009F406C1911107C08091E13889830E94BF
:100C300006198A839B830F900FBE0E94B7180FB6C8
:100C4000F8940F92F801858D8F3F09F4158ED80125
:100C50005E968C915E978F3F11F45E961C920F907A
:100C60000E9495180E94781581117FC0C8010E94CA
:100C7000E817882309F473C0F80180819181892BDA
:100C800009F05CC00FB6F8940F92E480F580E1148F
:100C9000F10409F450C0F70186890E94BD18891734
:100CA00008F03DC0D7011C962D913C911D9737FD52
:100CB00005C00E94BD1894010E949C18789EC00136
:100CC00011248050984CF701228533852817390765
:100CD000F1F46701F2E0CF0ED11CC6010E94391673
:100CE000E091C738F091C8388689D70156968C9321
:100CF0009091E238981710F48093E238789EC00102
:100D00001124B6018050984C0E947F1605C00E94A5
:100D100010198689F701868BDD24D3940DC0E091EC
:100D2000C738F091C838DD24D394D70191969C91AF
:100D30008689981708F0D12C0F900FBE6C817D81A9
:100D4000C5010E94BB17C8010E9464130E940F0EC8
:100D5000882311F091E02CCF0E940011FBCFC80135
:100D60000E9464130E940F0EF5CFC8010E94641305
:100D70000E940F0EC8010E94E817882359F3DD2056
:100D800009F458C00FB6F8940F92F80181898823AE
:100D900039F00688F789E02D908184E0891B01C035
:100DA00080E0D80114960D911C911597011511053D
:100DB00009F43EC0F80191A1981708F4982FD801C2
:100DC00056968C915697981799F192962C919297E6
:100DD000213071F556969C9356971C962D913C9117
:100DE0001D9737FD04C024E030E00E949C180E944B
:100DF0000B198050984CF801228533852817390744
:100E0000B9F47801F2E0EF0EF11CC7010E94391627
:100E1000D80156968C919091E238981710F48093EF
:100E2000E2380E940B19B7018050984C0E947F163F
:100E30000F900FBE80E02596CDBFDEBFDF91CF9132
:100E40001F910F91FF90EF90DF90CF90BF90AF90E8
:080E50009F908F907F900895A0
:100E58005F926F927F928F929F92AF92BF92CF9242
:100E6800DF92EF92FF920F931F93CF93DF93582E49
:100E7800692E5B016A01722E132FCA010E94AC15FC
:100E88004C01892B09F4D0C088E290E00E94AC158F
:100E9800EC01009709F4C8C08F8A988E21E0C21A25
:100EA800D1088C0C9D1CA114B104A1F0BC01675E93
:100EB8007F4FF501C50108969F014191DB014D93D4
:100EC800BD01D9012C91222319F0E817F907A1F7E0
:100ED80018A201C0198E043008F003E00E8B09A394
:100EE8001AA21A861B861C8A1D8AC887D98784E09D
:100EF80090E0801B91098C879D87CA8BDB8B84E0EF
:100F0800FE01B396DF011D928A95E9F71FA2F4014D
:100F180050823197608231971082319780E88083C0
:100F2800319710827797708231971083F3E28F1A86
:100F3800910888829982E114F10419F0D701CD93C0
:100F4800DC930FB6F8940F928091E4388F5F80930A
:100F5800E4388091C7389091C838892BA9F5C09397
:100F6800C738D093C8388091E4388130D1F580E013
:100F780098E30E94CC1789E098E30E94CC1782E19D
:100F880098E30E94CC178BE198E30E94CC1783E684
:100F980098E30E94CC178AE598E30E94CC178CE668
:100FA80098E30E94CC178FE398E30E94CC1783E65E
:100FB80098E38093AB389093AC388AE598E38093B4
:100FC800AD389093AE380DC08091E038811109C0DA
:100FD8000E94BD188E89891720F0C093C738D09316
:100FE800C8388091E3388F5F8093E3380E940119F5
:100FF80010F48093E2380E940B19BE016E5F7F4F98
:101008008050984C0E947F160F900FBE8091E03858
:10101800882341F00E94101996898E89981710F438
:101028000E94001181E001C08FEFDF91CF911F91E5
:101038000F91FF90EF90DF90CF90BF90AF909F906F
:0A1048008F907F906F905F900895E5
:1010520089E0F82E80910038823010F00E94001151
:101062008091A9389091AA38892BA1F380913638C2
:101072008823E1F0F894C6B1D7B1CE010C960E9454
:10108200391678940E94D9180E9439168E89909147
:10109200D538981710F48093D538F89EC0011124E2
:1010A200B8018C5D974C0E947F16E0CF0E946618B3
:1010B2002091A7383091A838821B930B8093A538D2
:1010C2009093A6388091A5389091A638C091A33804
:1010D200D091A438009709F454C02196C093A33844
:1010E200D093A43801978093A5389093A63820977F
:1010F20009F03FC08091A9389091AA382091A13877
:101102003091A2382093A9383093AA388093A1381D
:101112009093A2382EC00580F681E02D06811781BA
:10112200D8010E94DE18C817D90760F2F894680146
:10113200B2E0CB0ED11CC6010E943916F801848997
:101142009589892B21F0C8010C960E943916789452
:10115200D80156968C919091D538981710F48093B7
:10116200D538F89EC0011124B6018C5D974C0E94BF
:101172007F16E091A938F091AA3880818111CBCFF6
:10118200A1CFC093A738D093A8388091D538482FE3
:1011920050E0F49E9001F59E300D1124F901EC5DB2
:1011A200F74C9081911107C0811103C01092D5387C
:1011B20051CF8150ECCF8093D5380E943118295DF0
:1011C200374CA217B30721F40E94DE188183928361
:1011D200F49EF001F59EF00D1124EC5DF74C0180B8
:1011E200F281E02D86819781DC01ED91FC911197CE
:0811F20057966C9109952ECF70
:1011FA000E9466188C01C12CD12C760160E2B62EB1
:10120A000E94B7188091C9389091CA38E801C85429
:10121A00D44F8017910720F4C017D10748F404C0AF
:10122A00C017D10708F4A9C08C179D0708F4A5C0F8
:10123A000E940F0E811102C00E940011E5E8F8E336
:10124A0080E090E041E09C01220F331FD901A358AE
:10125A00B74C6D917C91A081B181A617B70709F4AB
:10126A0040E0D901A358B74C2D913C912193319379
:10127A0001968430910539F7413011F06894C0F82D
:10128A000E943A184091993850919A3860919B3847
:10129A0070919C380E94E81819F41092D6380AC046
:1012AA000E943A188093993890939A38A0939B3861
:1012BA00B0939C388091913890919238A09193384C
:1012CA00B091943840918D3850918E3860918F3812
:1012DA00709190380E94E81850F4841B950BA60B65
:1012EA00B70B0697A105B10510F01092D638809178
:1012FA00D638813011F06894C1F88091D7388111BD
:10130A0044C08091DD389091DE38981304C081E0A2
:10131A008093DC3804C08091DD388093DE38809178
:10132A00DA389091DB38981304C081E08093DC3876
:10133A0004C08091DA388093DB388091D838909154
:10134A00D938981304C081E08093DC3804C08091B6
:10135A00D8388093D9388091DC388130C9F0C114EB
:10136A00D104E104F10411F08E014ACF0E94B718AA
:10137A00B092A7040E940F0EF7CF60E09E01281BCF
:10138A00390BC9010E94470F53CF6894C2F8B9CFED
:06139A006894C3F8E9CFDE
:1013A000CF92DF92EF92FF920F931F93CF93DF9331
:1013B0008091DF38811193C00091C9381091CA38EB
:1013C0000F5F1F4F0093C9381093CA3801151105DC
:1013D000B9F48091AB389091AC382091AD38309110
:1013E000AE382093AB383093AC388093AD389093BF
:1013F000AE388091E1388F5F8093E1380E94D81633
:101400008091C1389091C238C0E00817190708F4DC
:101410004BC0D9E0E091AB38F091AC3880818111BC
:1014200003C08FEF9FEF0FC0E091AB38F091AC3865
:101430000580F681E02DE680F780D7010E94DE1856
:101440000817190728F48093C1389093C2382CC02C
:101450006701B2E0CB0ED11CC6010E943916F7011C
:1014600084899589892B21F0C7010C960E94391631
:10147000D70156968C919091E238981710F480938A
:10148000E238D89FC0011124B6018050984C0E94C8
:101490007F160E941019D70156969C91868998173D
:1014A00008F4B8CFC1E0B6CF0E941019E689B9E0C0
:1014B000EB9FF0011124E050F84C8081823008F05D
:1014C000C1E08091CB389091CC38892B11F40E94E7
:1014D000160D8091E538882371F0C1E00CC0809131
:1014E000CB389091CC3801968093CB389093CC3800
:1014F0000E94160DC0E08C2FDF91CF911F910F91AC
:0A150000FF90EF90DF90CF90089568
:10150A00F1E00F2EF2E01F2EF3E02F2EF4E03F2E33
:10151A00F5E04F2EF6E05F2EF7E06F2EF8E07F2E13
:10152A00F9E08F2EFAE09F2EFBE0AF2EFCE0BF2EF3
:10153A00FDE0CF2EFEE0DF2EFFE0EF2EF0E1FF2EE2
:10154A0001E112E123E134E145E156E167E178E1A5
:10155A0089E19AE1ABE1BCE1CDE1DEE1EFE10E9494
:10156A000011F03111F00092D738F1E0F011009239
:10157A00D738F2E0F1110092D738F3E0F211009275
:10158A00D738F4E0F3110092D738F5E0F41100925D
:10159A00D738F6E0F5110092D738F7E0F611009245
:1015AA00D738F8E0F7110092D738F9E0F81100922D
:1015BA00D738FAE0F9110092D738FBE0FA11009215
:1015CA00D738FCE0FB110092D738FDE0FC110092FD
:1015DA00D738FEE0FD110092D738FFE0FE110092E5
:1015EA00D738F0E1FF110092D738F1E1F0130092F9
:1015FA00D738F2E1F1130092D738F3E1F2130092EF
:10160A00D738F4E1F3130092D738F5E1F4130092D6
:10161A00D738F6E1F5130092D738F7E1F6130092BE
:10162A00D738F8E1F7130092D738F9E1F8130092A6
:10163A00D738FAE1F9130092D738FBE1FA1300928E
:10164A00D738FCE1FB130092D738FDE1FC13009276
:10165A00D738FEE1FD130092D738FFE1FE1300925E
:04166A00D7384ECF50
:10166E00F5E00F2EF6E01F2EF7E02F2EF8E03F2EBE
:10167E00F9E04F2EFAE05F2EFBE06F2EFCE07F2E9E
:10168E00FDE08F2EFEE09F2EFFE0AF2EF0E1BF2E8D
:10169E00F1E1CF2EF2E1DF2EF3E1EF2EF4E1FF2E9A
:1016AE0005E116E127E138E149E15AE16BE17CE120
:1016BE008DE19EE1AFE1B0E2C1E2D2E2E3E20E944F
:1016CE000011F43111F00092D738F5E0F0110092CC
:1016DE00D738F6E0F1110092D738F7E0F211009208
:1016EE00D738F8E0F3110092D738F9E0F4110092F0
:1016FE00D738FAE0F5110092D738FBE0F6110092D8
:10170E00D738FCE0F7110092D738FDE0F8110092BF
:10171E00D738FEE0F9110092D738FFE0FA110092A7
:10172E00D738F0E1FB110092D738F1E1FC110092AD
:10173E00D738F2E1FD110092D738F3E1FE11009295
:10174E00D738F4E1FF110092D738F5E1F01300928B
:10175E00D738F6E1F1130092D738F7E1F213009281
:10176E00D738F8E1F3130092D738F9E1F413009269
:10177E00D738FAE1F5130092D738FBE1F613009251
:10178E00D738FCE1F7130092D738FDE1F813009239
:10179E00D738FEE1F9130092D738FFE1FA13009221
:1017AE00D738F0E2FB130092D738F1E2FC13009227
:1017BE00D738F2E2FD130092D738F3E2FE1300920F
:0417CE00D7384ECFEB
:1017D200CF93DF9300D000D0CDB7DEB78C010FB628
:1017E200F8940F928090CD389090CE388091CD3879
:1017F2009091CE3801968093CD389093CE380F9049
:101802000FBEF801A280B38084819581892BA1F05B
:101812008FEF9FE0A0E0B0E089839A83AB83BC8323
:10182200E12CF12C4AE0742EC401880F991F9C010F
:101832002358374C690135C08FEF90E0A0E0B0E04B
:10184200EBCFF501408151816281738189819A8157
:10185200AB81BC810E94E81819F0EE24E394F12CCC
:1018620080E090E0DC0149815A816B817C810E9499
:10187200E81808F50E94E318F801808191810E941E
:10188200880C8823C1F1E114F10451F1F80184813B
:1018920095819C01729EC001739E900D11240E943D
:1018A2001D17F80164817581808191810E94B805BC
:1018B200813029F5C6CFF50180839183A283B3835A
:1018C200408151816281738184179507A607B7070A
:1018D20019F0EE24E394F12C0196A11DB11DC3CFA2
:1018E200F4E08F16910494F6F601808191810196BD
:1018F20080839183CBCFEE24E394F12CC7CFF80100
:0E19020084819581892B69F60E940011CACF5D
:10191000CF92DF92EF92FF920F931F93CF93DF93BB
:10192000CDB7DEB72597CDBFDEBF8C017B014C83E1
:101930005D8380E0680198E0C90ED11C0FB6F89471
:101940000F92F801228D938D291798F4B701C801E1
:101950000E94790EF8019189992321F0C8014196DE
:101960000E94E51381110E9400110F900FBE81E0CB
:1019700051C02C813D81232B19F40F900FBE49C01B
:10198000811109C08091E13889838091C938909193
:10199000CA388A839B830F900FBE0E94B7180FB678
:1019A000F8940F92F801858D8F3F09F4158EF80198
:1019B000868D8F3F09F4168E0F900E9495180E9415
:1019C0007815811121C00FB6F8940F92F801928D0D
:1019D0000F900FBE838D981311C06C817D81C6015D
:1019E0000E94BB17C8010E9464130E940F0E882337
:1019F00011F081E0A3CF0E940011FBCFC8010E942B
:101A000064130E940F0EF5CFC8010E9464130E9458
:101A10000F0E80E02596CDBFDEBFDF91CF911F91E5
:0C1A20000F91FF90EF90DF90CF900895A1
:101A2C000F931F93CF93DF938091CF389091D03841
:101A3C00892B09F477C08091E7388F5F82331CF4CF
:101A4C008093E7386FC01092E7388091E638813088
:101A5C0029F0823009F432C0811162C0C091B738CC
:101A6C00D091B8382FA182E00E94DA1709F5809145
:101A7C00DF38811110C00E94D9180E9439168E8946
:101A8C009091E238981710F48093E2380E94B118C4
:101A9C008050984C05C0BE01645F7F4F8CE698E384
:101AAC000E947F160E94861818F481E08093E53816
:101ABC008091E6388F5F8093E63832C0C091B7389A
:101ACC00D091B8384BA15CA16DA17EA12FA10E9431
:101ADC00DA1721F58091DF38811113C00E94D918D3
:101AEC000E9439168E899091E238981710F48093E1
:101AFC00E23829E0829FC0011124B8018050984C33
:101B0C0005C0BE01645F7F4F8CE698E30E947F1690
:101B1C000E94861818F481E08093E5381092E6381C
:0E1B2C000E944617DF91CF911F910F910895EF
:101B3A004F925F926F927F928F929F92AF92BF92D3
:101B4A00EF92FF920F931F9349015A010FB6F8942F
:101B5A000F920E94F71827A1223009F10E94F71864
:101B6A0023A134A145A156A12B013C0140945094D4
:101B7A0060947094D301C20182239323A423B523D2
:101B8A000E94F2180E94F71881E087A3E114F10479
:101B9A0031F061E0C7010E94470F0E9400110F90C7
:101BAA000FBE0FB6F8940F920115110549F00E9465
:101BBA00F7180E94ED18F80180839183A283B383FA
:101BCA000E94F71887A1823081F40E944318D50138
:101BDA00C40180959095A095B09584239523A6235A
:101BEA00B7230E94F21881E001C080E0E091C73873
:101BFA00F091C83817A20F900FBE1F910F91FF9056
:101C0A00EF90BF90AF909F908F907F906F905F9072
:041C1A004F9008954A
:101C1E00EF92FF920F931F93CF93DF930FB6F8942B
:101C2E000F928091DF3881508093DF388091DF38BA
:101C3E00882311F080E04DC08091E4388823D1F3E1
:101C4E00C0E0D0E089E0F82EEE24E39480916C3869
:101C5E00882309F1E0917138F0917238C681D781ED
:101C6E00CE010C960E9439160E94D9180E94391680
:101C7E000E94011910F48093E238F89EC0011124DD
:101C8E00B8018050984C0E947F160E946E18F0F298
:101C9E00E092E538DBCFCD2B11F00E94D816C09123
:101CAE00CB38D091CC38209761F011E00E94D0094A
:101CBE0081111093E5382197C9F71092CB38109205
:101CCE00CC388091E538882309F4B4CF0E940011F6
:101CDE0081E00F900FBEDF91CF911F910F91FF907A
:041CEE00EF900895D6
:101CF200CF92DF92FF920F931F93CF93DF93EC016A
:101D0200FA8C4C8D41113DC088819981892B09F053
:101D12004DC00C811D810115110511F480E02EC00A
:101D2200F80182A1815082A3268991A12917B1F3DA
:101D32008111F4CF6801F2E0CF0ED11CC6010E94DE
:101D42003916F80181A1868B482F50E024E030E05B
:101D5200241B350B248735879091E238981710F4AD
:101D62008093E23829E0249FC001259F900D112421
:101D7200B6018050984C0E947F1681E01C821D8221
:101D820016C050E08A819B810E9455182C8D8A8151
:101D92009B81820F911D8A839B832C813D818217B7
:101DA200930720F0888199818A839B8380E0F39452
:101DB200FA8EDF91CF911F910F91FF90DF90CF901C
:021DC200089582
:101DC400EF92FF921F93CF93DF93EC01643008F0FE
:101DD40063E00FB6F8940F92209721F4C091C738AE
:101DE400D091C83899A1961709F447C02091C738F3
:101DF4003091C838961750F4C217D30759F00E948F
:101E0400101911E08689681730F404C011E0C21774
:101E1400D30709F010E08E89981301C06E8B69A373
:101E24002C853D8537FD06C024E030E0261B3109B2
:101E34002C873D8729E0829FC00111248050984C53
:101E44002A853B8528173907A9F47E0182E0E80E2C
:101E5400F11CC7010E9439160E94011910F48093E5
:101E6400E23829E0829FC0011124B7018050984CC8
:101E74000E947F1611110E9400110F900FBEDF9176
:0A1E8400CF911F91FF90EF90089599
:101E8E00FF920F931F93CF93DF93EC01F62E0091E9
:101E9E00C9381091CA388091C7389091C8380296C7
:101EAE000E943916CF3F8FEFD80789F4FF2079F0C3
:101EBE006091C7387091C8386E5F7F4F8FE398E39B
:101ECE00DF91CF911F910F91FF900C947F16C00F51
:101EDE00D11FE091C738F091C838C283D383609187
:101EEE00C7387091C838C017D10768F48091AD38E3
:101EFE009091AE386E5F7F4FDF91CF911F910F9112
:101F0E00FF900C94D8148091AB389091AC386E5FE2
:101F1E007F4F0E94D8148091C1389091C238C81753
:101F2E00D90720F4C093C138D093C238DF91CF9136
:081F3E001F910F91FF9008951F
:101F46000F931F93CF93DF93FC010FB6F8940F9274
:101F56000115110539F00E94ED18E801888399836F
:101F6600AA83BB8337A182E087A3223079F048F4A5
:101F76002130D1F40E94ED18482B592B6A2B7B2B6C
:101F86000FC0233069F0243049F00EC00E94ED18CE
:101F96000196A11DB11D0E94F21806C0323021F132
:101FA60043A354A365A376A33130E1F4EF018F0177
:101FB6000E5F1F4FC8010E9439168E899091E23834
:101FC600981710F48093E2380E94B1188050984C0C
:101FD6000E947F160E94F7189E898689891710F439
:101FE6000E94001181E001C080E00F900FBEDF91DA
:081FF600CF911F910F91089596
:101FFE000F920FB6F8940F921F9211242F923F92C8
:10200E004F925F926F927F928F929F92AF92BF92FA
:10201E00CF92DF92EF92FF920F931F932F933F93E6
:10202E004F935F936F937F938F939F93AF93BF93D2
:10203E00CF93DF93EF93FF930E9415190DB60D9278
:10204E000EB60D920E94D00981110E9423140E9497
:10205E00C318CDBFDD91DEBFFF91EF91DF91CF9120
:10206E00BF91AF919F918F917F916F915F914F91A2
:10207E003F912F911F910F91FF90EF90DF90CF9096
:10208E00BF90AF909F908F907F906F905F904F908A
:0E209E003F902F901F900F900FBE0F9018953F
:1020AC000F931F93CF93DF93EC010FB6F8940F921D
:1020BC00892B21F4C091C738D091C8388E010E5F9E
:1020CC001F4FC8010E9439168C899D89892B21F0DC
:1020DC00CE010C960E943916B8018FE398E30E944A
:1020EC007F168FA1813009F41FA20F900FBE809133
:1020FC00E038882339F00FB6F8940F920E94D81666
:10210C000F900FBE8091C7389091C838C817D90767
:10211C00C1F48091E038882319F00E94001111C09D
:10212C0090913F388091E438981305C01092C738CD
:10213C001092C83806C0DF91CF911F910F910C946B
:0C214C002314DF91CF911F910F91089593
:102158000F920FB6F8940F921F9211242F923F926C
:102168004F925F926F927F928F929F92AF92BF929F
:10217800CF92DF92EF92FF920F931F932F933F938B
:102188004F935F936F937F938F939F93AF93BF9377
:10219800CF93DF93EF93FF930E9415190DB60D921D
:1021A8000EB60D920E9423140E94C318CDBFDD9174
:1021B800DEBFFF91EF91DF91CF91BF91AF919F91DA
:1021C8008F917F916F915F914F913F912F911F91C7
:1021D8000F91FF90EF90DF90CF90BF90AF909F90BE
:1021E8008F907F906F905F904F903F902F901F90AF
:0821F8000F900FBE0F90189527
:102200000F920FB6F8940F921F9211242F923F92C3
:102210004F925F926F927F928F929F92AF92BF92F6
:10222000CF92DF92EF92FF920F931F932F933F93E2
:102230004F935F936F937F938F939F93AF93BF93CE
:10224000CF93DF93EF93FF930E9415190DB60D9274
:102250000EB60D920E9423140E94C318CDBFDD91CB
:10226000DEBFFF91EF91DF91CF91BF91AF919F9131
:102270008F917F916F915F914F913F912F911F911E
:102280000F91FF90EF90DF90CF90BF90AF909F9015
:102290008F907F906F905F904F903F902F901F9006
:0822A0000F900FBE0F9008958E
:1022A800FF920F931F93CF93DF93CDB7DEB7259798
:1022B800CDBFDEBF0091C5381091C6380115110594
:1022C80011F480E037C069834A835B838C839D83E4
:1022D800663054F48091E038882321F18091DF380A
:1022E800811120C0A90120C0F801928D838D981713
:1022F80040F7F68C828DBE016F5F7F4FC8010E9448
:10230800790EFFEFFF1209C0F8018189882341F097
:10231800C80141960E94E51303C0F394F801F68EB4
:1023280081E008C040E050E0BE016F5F7F4FC80108
:102338000E94880C2596CDBFDEBFDF91CF911F91FB
:062348000F91FF900895C3
:10234E00EF92FF920F931F93CF93DF93E091B338E9
:10235E00F091B4388081882381F10580F681E02DDB
:10236E0000811181C681D7817E0182E0E80EF11CC9
:10237E00C7010E943916E889F989CE0109958A8923
:10238E0082FFE4CF8C859D85800F911F081719075A
:10239E0060F48A839B83C887D987B7018091B3384D
:1023AE009091B4380E94D814D1CF20E030E0A8012B
:1023BE0060E0CE010E945411C9CF8091B138909146
:1023CE00B2388093B3389093B438E093B138F09329
:1023DE00B238DF91CF911F910F91FF90EF9008953A
:1023EE001F920F920FB60F9211240F931F932F93DC
:1023FE003F934F935F936F937F938F939F93AF937F
:10240E00BF93EF93FF93CF93DF931F92CDB7DEB7BA
:10241E000AB30023D1F01DB3BE016F5F7F4F80E082
:10242E0090E00E94BE1601500ABB1F3F41F488B1D6
:10243E00882339F088E090E00E94E51302C01F5F08
:10244E001DBB89818093620805C0809165088F7DD0
:10245E00809365080F90DF91CF91FF91EF91BF911F
:10246E00AF919F918F917F916F915F914F913F911E
:10247E002F911F910F910F900FBE0F901F901895D7
:10248E001F920F920FB60F9211241F932F933F930B
:10249E004F935F936F937F938F939F93AF93BF935E
:1024AE00EF93FF93CF93DF931F92CDB7DEB780915B
:1024BE00600889839AB38BB39817C8F41EB38AB396
:1024CE00BE016F5F7F4F80E090E00E94790E1F3F4C
:1024DE0061F481B3882359F081E190E00E94E51305
:1024EE00882329F00E94AC1002C01F5F1EBB0F9004
:1024FE00DF91CF91FF91EF91BF91AF919F918F910E
:10250E007F916F915F914F913F912F911F910F90FE
:08251E000FBE0F901F901895ED
:10252600EF92FF920F931F93CF93DF93182F062FEF
:10253600869F70011124C7014F960E94AC15EC01CD
:10254600009781F1011103C08883998303C04F96D8
:10255600888399831B8F0C8F0FB6F8940F9248814E
:102566005981E40EF51EEC82FD821A8E4A835B8346
:10257600812F90E00197089F9001099F300D11244B
:10258600CA01820F931F8E839F838FEF8D8F8E8F4D
:10259600CE0108960E94CC17CE0141960E94CC1718
:1025A6000F900FBECE01DF91CF911F910F91FF903B
:0425B600EF90089505
:1025BA000FB6F8940F928091C5389091C638892B3E
:1025CA00C1F581E598E30E94CC1788E498E30E945C
:1025DA00CC1781E598E38093B3389093B43888E4B4
:1025EA0098E38093B1389093B23840E065E085E093
:1025FA000E9493128093C5389093C6380097C9F009
:10260A002091753830917638232B49F0209179380A
:10261A0030917A38232B69F4E1E0F0E002C0E0E07F
:10262A00F0E00E948E182CE13AE6208331838283FF
:08263A0093830F900FBE089579
:102642000F931F93182FCB010FB6F8940F920E948D
:102652004318452B462B472B59F40E94F71821E0CB
:1026620027A3009729F061E00E94470F0E94001102
:102672000F900FBE0FB6F8940F920E94FC1863A140
:1026820074A185A196A1611571058105910599F045
:102692000E94FC18112329F013A214A215A216A25B
:1026A2000AC08B019C01015011092109310903A3C0
:1026B20014A325A336A30E94FC1817A20F900FBEE5
:0626C2001F910F91089525
:1026C800EF92FF920F931F93CF93DF93EC010FB616
:1026D800F8940F921E8D7C0181E1E80EF11C01E057
:1026E80011165CF48989882341F0C7010E94E5131B
:1026F80081110093E5381150F3CF8FEF8E8F0F9033
:102708000FBE0FB6F8940F921D8D7E0188E0E80E7B
:10271800F11C01E011165CF48885882341F0C7019B
:102728000E94E51381110093E5381150F3CF8FEF24
:102738008D8F0F900FBEDF91CF911F910F91FF905A
:04274800EF90089571
:10274C00C1E00E941A190E94A917813011F48093DC
:10275C00DC38DAE06FE070E00E941A190E9407176B
:10276C00813011F0C093DC3884E190E00E941D1799
:10277C00D15081F7DAE084E190E00E941D170E94AD
:10278C001A190E94A917813011F0C093DC38D1506E
:10279C0091F70E941A190E94A917813011F48093A5
:1027AC00DC388091DD388F5F8093DD38C093E8385A
:0E27BC0080E090E00E9456101092E838C2CFE4
:1027CA000F931F93CF93DF93DC011596ED91FC9144
:1027DA001697C681D7818E01045F1F4FC8010E94D8
:1027EA0039168091DF38811112C00A501109C801C7
:1027FA000E9439160E94011910F48093E238B9E058
:10280A008B9FC0011124B8018050984C03C0B801B5
:10281A008CE698E30E947F16E091C738F091C83899
:10282A009E898689891720F481E08093E53801C062
:0C283A0080E0DF91CF911F910F91089575
:102846008091DF38882321F081E08093E538089570
:102856001092E5388091E23869E0482F50E0649F95
:102866009001659F300D1124F901E050F84C9081DC
:10287600911102C08150F1CF0E9431182D5F374C63
:10288600A217B30731F412962D913C911397218329
:10289600328399E0949FF001959FF00D1124E0504A
:1028A600F84C0180F281E02D268137812093C738CC
:0A28B6003093C8388093E23808958B
:1028C0000F931F93CF93DF932091C7383091C8386F
:1028D0008217930769F1009759F10FB6F8940F9298
:1028E000FC01228533852F53384301F5FC012489EF
:1028F0003589F8E32C363F07C9F0232BB9F4EC01F6
:102900008C010E5F1F4FC8010E9439160E940119E9
:1029100010F48093E2380E94B1188050984C0E94C5
:102920007F160E946E1810F00E9400110F900FBECB
:0A293000DF91CF911F910F910895E0
:10293A00CF92DF92EF92FF920F931F93C0909D3830
:10294A00D0909E38E0909F38F090A0380E941F19CE
:10295A00C114D104E104F10419F40E9456100BC009
:10296A000E94561000E010E023E0B701A6010E9481
:10297A001F190E94A30F0E941F190E9460148FEF53
:10298A00C81AD80AE80AF80AC0929D38D0929E3826
:10299A00E0929F38F092A0381F910F91FF90EF902C
:0629AA00DF90CF900895BC
:1029B0000F931F93CF93DF938C01FB018081918153
:1029C0008F3F2FEF920721F4E801AF81B8850EC049
:1029D000D801139612962D913C911397E9014881E5
:1029E00059818417950710F0D901F4CF0E94DE18A1
:1029F00082839383EC01EC83FD83A483B5831296D9
:102A0000ED93FC93139700871187F80180818F5F06
:0C2A10008083DF91CF911F910F910895FA
:102A1C00546D725100506F6C53454D3100506F6CBA
:102A2C0053454D3200426C6B53454D3100426C6B3B
:102A3C0053454D32004E6F7469666965640052658A
:102A4C00673100526567320052656375727369763F
:102A5C00655F4D757465780052656331005265632E
:102A6C0032005265633300436865636B0049444C24
:0A2A7C004500546D7220537663008C
:102A8600C1E060E070E00E941A190E9407178130C9
:102A9600C1F78091E938813029F58091E838813095
:102AA60009F58091D8388F5F8093D8388091B938EE
:102AB6009091BA380E9460148091BB389091BC38CE
:102AC6000E9460148091E938813021F08091E838C5
:102AD600813011F4C093DC380E941A190E94A9179C
:0A2AE600813079F2C093DC38CCCFC8
:102AF000FC01DB010FB6F8940F924091C938509158
:102B0000CA382D913C9111972F3F8FEF3807F1F084
:102B1000818192816091E1387081761719F04817B0
:102B20005907B0F4481B590B4217530760F4241B94
:102B3000350B2D933C938091E13880830E940619D8
:102B40008183928303C01D921C9202C080E001C069
:082B500081E00F900FBE089513
:102B5800CF93DF93EC010E94B7188091D3389091FE
:102B6800D438892B31F481E098E28093D33890935C
:102B7800D4382091D1383091D238C9018C0F9D1F9B
:102B88008F3F4FE0940770F42817390758F4C09125
:102B9800D338D091D438C20FD31F8093D1389093B3
:102BA800D23802C0C0E0D0E00E940F0ECE01DF9103
:042BB800CF9108951C
:102BBC00C1E06EEF7FEF0E941A190E940717813057
:102BCC00C1F4D091E838D13019F08093DC3813C0BF
:102BDC000E941A190E94A917813011F0D093DC3889
:102BEC00C093E93880E090E00E9456101092E938CA
:102BFC0002C0C093DC388091DA389091DD388F5F59
:102C0C008913C093DC388091DA388F5F8093DA387F
:022C1C00D0CF17
:102C1E00FC0162837383808791874617570778F08C
:102C2E00421B530B8485958548175907C8F4BF017D
:102C3E006E5F7F4F8091B1389091B2380DC04217C0
:102C4E00530718F46217730758F4BF016E5F7F4F76
:102C5E008091B3389091B4380E94D81480E00895D2
:042C6E0081E0089564
:102C7200CF93DF93FC01A085B1858281938124816A
:102C82003581EC012C833D83C481D5818A839B836A
:102C920011968D919C911297E817F90721F41196DC
:102CA200CD93DC931297108611868C9181508C9370
:082CB2008C91DF91CF91089590
:102CBA00A1E21A2EAA1BBB1BFD010DC0AA1FBB1F36
:102CCA00EE1FFF1FA217B307E407F50720F0A21BA8
:102CDA00B30BE40BF50B661F771F881F991F1A9415
:102CEA0069F760957095809590959B01AC01BD013F
:042CFA00CF01089569
:102CFE00CF93DF939C01FB01DC011196CD91DC910A
:102D0E001297C283D3838C819D81848395838C811A
:102D1E009D81DC0112966D937C9313976C837D835A
:102D2E0020873187F90180818F5F8083DF91CF917A
:022D3E000895F6
:102D40008091953890919638A0919738B0919838A5
:102D50000196A11DB11D8093953890939638A0934C
:102D60009738B0939838E12CF12C00E010E020E087
:0C2D700030E0A9016FEF7FEFCB01089568
:102D7C00FC01CB01448D4423A1F050E02681378126
:102D8C00240F351F268337836481758126173707F7
:102D9C0020F02081318126833783668177810C94E2
:042DAC005518089519
:102DB000E091AB38F091AC388081811103C08FEF86
:102DC0009FEF09C0E091AB38F091AC380580F681F7
:102DD000E02D808191818093C1389093C23808950D
:102DE00000918D3810918E3820918F383091903825
:102DF000DC01CB01800F911FA21FB31F80938D3880
:0E2E000090938E38A0938F38B0939038089539
:102E0E00CF93DF930E94091829F486818F5F868302
:102E1E0081E009C0EF01CF010E94B805882319F0A7
:0C2E2E009E819F5F9E83DF91CF910895ED
:102E3A00CF93DF93EC01892B19F40E9400110AC089
:102E4A000E94B71860E0CE010E94470F0E940F0E41
:0A2E5A00882399F3DF91CF910895CA
:102E64004091B5385091B63825E33EE4429FC00105
:102E7400439F900D529F900D112401968093B53875
:082E84009093B63880E0089538
:102E8C008091913890919238A0919338B091943868
:102E9C000196A11DB11D8093913890939238A09307
:082EAC009338B09394380895A7
:102EB4008091953890919638A0919738B091983830
:102EC4000196A11DB11D8093953890939638A093D7
:082ED4009738B0939838089577
:102EDC0080918D3890918E38A0918F38B091903828
:102EEC000196A11DB11D80938D3890938E38A093BF
:082EFC008F38B093903808955F
:102F0400AA1BBB1B51E107C0AA1FBB1FA617B7070B
:102F140010F0A61BB70B881F991F5A95A9F7809527
:082F24009095BC01CD01089558
:102F2C000F931F9300E010E022E00E947E180E9495
:102F3C00A30F0FB6F8940F920E9446170F900FBE76
:062F4C001F910F91089592
:102F52000E94091859F4868181508683811108C024
:102F6200CF010E94E3180E94880C02C080E00895FD
:042F720081E008955D
:102F7600CF93DF93EB016091C7387091C838645FD7
:102F86007F4F0E94D81461E0CE01DF91CF910C945F
:022F9600470FE3
:102F9800FC010396818392832FEF3FEF23833483D1
:0C2FA800858396838783908710820895AC
:102FB4008FA38BA19CA1ADA1BEA10196A11DB11DA2
:0C2FC4008BA39CA3ADA3BEA321300895F5
:102FD0000FB6F8940F92FC01928D0F900FBE81E016
:062FE000911180E008954C
:102FE60053696E676C654E6F74696679004E6F74CF
:062FF600696669657200C6
:102FFC00F12C8E010B5F1F4F20E030E0A9016FEF29
:06300C007FEFCB010895E7
:10301200FC018091C7389091C838248135812817E6
:0430220039070895CD
:103026008E010B5F1F4F20E030E0A90160E070E0E9
:04303600CB0108952D
:10303A008E010B5F1F4F20E030E0A9016FEF7FEF99
:04304A00CB01089519
:10304E0024E041EA56E861E070E08091B738909153
:04305E00B8380895E1
:10306200A181B28112960D90BC91A02DA183B28351
:023072000895BF
:103074008091953890919638A0919738B09198386E
:023084000895AD
:10308600E091C738F091C83843A154A165A176A153
:0230960008959B
:1030980041EA56E861E070E08091B7389091B8381D
:0230A800089589
:1030AA00FB01DC0102C001900D9241505040D8F75B
:0230BA00089577
:1030BC0060E070E0FC014083518362837383089568
:1030CC000FB6F8940F920E9406190F900FBE089538
:1030DC00E091C738F091C8389E8986899817089571
:1030EC000F9301E00093860A0F910E94FF0F189531
:1030FC0040E050E0BA018091B7389091B83808950B
:10310C00E091C738F091C8389E898689891708954F
:0E311C00EE0FFF1FEE0FFF1FEB58F74C08954C
:0E312A000FBEBE016C5F7F4FCE01019608956F
:0E313800291B31091C962D933C931D97089579
:0E31460020E030E0A90160E070E0CB010895C8
:0E31540020E030E0A9016FEF7FEFCB0108957E
:0C31620029E0829FC0011124B8010895EB
:0C316E008091DF388F5F8093DF38089578
:0C317A00E091C738F091C838968908959C
:0C318600A091C738B091C838CD910895D1
:0C319200EE0FFF1F0590F491E02D099452
:0A319E0020E030E04EE650E0089516
:0A31A80020E030E04CED50E0089507
:0A31B2008E010E5F1F4FC801089543
:0A31BC0012968D919C9113970895CF
:0A31C60040E050E060E070E0089582
:0A31D000481759076A077B070895A6
:0A31DA0083A194A1A5A1B6A1089558
:0A31E40083A394A3A5A3B6A3089546
:0A31EE00E091C738F091C838089549
:0A31F800E091C738F091C83808953F
:0A3202008E899091E2389817089524
:0A320C008091C9389091CA380895E6
:0A321600B9E08B9FC0011124089558
:0A322000E091C738F091C838089516
:0A322A00A091C738B091C83808958C
:0A3234008091BD389091BE380895D6
:0A323E008091B7389091B8380895D8
:043248000C940000E2
:01324C000180
:00000001FF
